{
  "contractName": "Bank",
  "abi": [
    {
      "constant": true,
      "inputs": [
        {
          "internalType": "address",
          "name": "",
          "type": "address"
        }
      ],
      "name": "accounts",
      "outputs": [
        {
          "internalType": "uint256",
          "name": "",
          "type": "uint256"
        }
      ],
      "payable": false,
      "stateMutability": "view",
      "type": "function"
    },
    {
      "constant": false,
      "inputs": [
        {
          "internalType": "uint256",
          "name": "amount",
          "type": "uint256"
        }
      ],
      "name": "deposit",
      "outputs": [
        {
          "internalType": "uint256",
          "name": "",
          "type": "uint256"
        }
      ],
      "payable": true,
      "stateMutability": "payable",
      "type": "function"
    },
    {
      "constant": false,
      "inputs": [
        {
          "internalType": "uint256",
          "name": "amount",
          "type": "uint256"
        }
      ],
      "name": "withdraw",
      "outputs": [
        {
          "internalType": "uint256",
          "name": "",
          "type": "uint256"
        }
      ],
      "payable": false,
      "stateMutability": "nonpayable",
      "type": "function"
    },
    {
      "constant": true,
      "inputs": [],
      "name": "getBalance",
      "outputs": [
        {
          "internalType": "uint256",
          "name": "",
          "type": "uint256"
        }
      ],
      "payable": false,
      "stateMutability": "view",
      "type": "function"
    }
  ],
  "bytecode": "0x608060405234801561001057600080fd5b5061035f806100206000396000f3fe60806040526004361061003f5760003560e01c806312065fe0146100445780632e1a7d4d1461006f5780635e5c06e2146100be578063b6b55f2514610123575b600080fd5b34801561005057600080fd5b50610059610165565b6040518082815260200191505060405180910390f35b34801561007b57600080fd5b506100a86004803603602081101561009257600080fd5b81019080803590602001909291905050506101ab565b6040518082815260200191505060405180910390f35b3480156100ca57600080fd5b5061010d600480360360208110156100e157600080fd5b81019080803573ffffffffffffffffffffffffffffffffffffffff169060200190929190505050610299565b6040518082815260200191505060405180910390f35b61014f6004803603602081101561013957600080fd5b81019080803590602001909291905050506102b1565b6040518082815260200191505060405180910390f35b60008060003373ffffffffffffffffffffffffffffffffffffffff1673ffffffffffffffffffffffffffffffffffffffff16815260200190815260200160002054905090565b60008060003373ffffffffffffffffffffffffffffffffffffffff1673ffffffffffffffffffffffffffffffffffffffff168152602001908152602001600020548211156101f857600080fd5b6000339050826000803373ffffffffffffffffffffffffffffffffffffffff1673ffffffffffffffffffffffffffffffffffffffff168152602001908152602001600020600082825403925050819055508073ffffffffffffffffffffffffffffffffffffffff166108fc849081150290604051600060405180830381858888f1935050505015801561028f573d6000803e3d6000fd5b5082915050919050565b60006020528060005260406000206000915090505481565b6000813373ffffffffffffffffffffffffffffffffffffffff1631146102d657600080fd5b816000803373ffffffffffffffffffffffffffffffffffffffff1673ffffffffffffffffffffffffffffffffffffffff1681526020019081526020016000206000828254019250508190555081905091905056fea265627a7a72315820ab79d44f0a95bfb7f9858e1f3afab2703c35573d0a913016ba94013693b388f064736f6c63430005100032",
  "source": "pragma solidity ^0.5.0;\r\n\r\ncontract Bank {\r\n\r\n    mapping(address => uint256) public accounts;\r\n\r\n    function deposit(uint256 amount) public payable returns (uint256) {\r\n        require(msg.sender.balance == amount);\r\n        accounts[msg.sender] += amount;\r\n        return amount;\r\n    } \r\n\r\n    function withdraw(uint256 amount) public returns (uint256) {\r\n        require(amount <= accounts[msg.sender]);\r\n        address payable payableMsgSender = address(uint160(address(msg.sender)));\r\n        accounts[msg.sender] -= amount;\r\n        payableMsgSender.transfer(amount);\r\n        return amount;\r\n    }\r\n\r\n    function getBalance() public view returns (uint256) {\r\n        return accounts[msg.sender];\r\n    }\r\n\r\n}",
  "sourcePath": "C:\\Users\\joach\\Desktop\\smart-contract-bank\\contracts\\bank.sol",
  "compiler": {
    "name": "solc",
    "version": "0.5.16+commit.9c3226ce.Emscripten.clang"
  },
  "schemaVersion": "3.4.3",
  "updatedAt": "2021-10-18T11:41:30.947Z",
  "devdoc": {
    "methods": {}
  },
  "userdoc": {
    "methods": {}
  }
}